:020000000F28C7
:10000800DE0003088312BB000408BC000A08BD0018
:100018005F08BE0096298316FF2390008301FC2AFF
:1000280000308A000408840A8207003400349D34B2
:10003800A534AD34B534BC34C334CD34D834EA3403
:100048002E1C08002908A5002808A4002608A402D8
:100058002708031CA503A5022908A7002808A6004D
:10006800A519B1012E102E118D2885193C28B10A29
:10007800B001A001A101A201A301A028033025021B
:10008800133003192402031C2E15B10AA0280030CE
:100098002502DB3003192402031C2E15013025022A
:1000A800B63003192402031849280530B100A028E6
:1000B80038302402031C48285530240203184828E5
:1000C800492838302402031C6D28FD302402031C03
:1000D8006E282E15A8302402031C79280310A30CBF
:1000E800A20CA10CA00CA3177D28A30CA20CA10C98
:1000F800A00CB00AB103A02838302402031C8828B9
:1001080055302402031C8A28AE112E15AE15B101F4
:10011800A0283108003A03193928013A031942285E
:10012800033A03194B28013A03195C28073A0319C3
:100138006528013A031980282E1DA32803233008B7
:10014800203A031DAA28AE14B101B001AF1008006F
:100158002108200603190800A008031D080022082A
:100168002306031908002E13F0282E16C3282E166E
:10017800C2032829C201EC2228292E16C201C20A6C
:1001880028292E160230DC282E160330DC282E16DD
:100198000430DC282E160530DC282E160630DC2824
:1001A8002E160730DC282E160830DC282E160930CB
:1001B800C20028294310BF28C2080319C20A2E16F4
:1001C8002829431CE828C40339222829431CE82885
:1001D800C40AE828A62228292208073A0319BB28B6
:1001E8000F3A0319CB28013A0319BF28053A031916
:1001F800C128193A0319B928033A0319BE280E3A37
:100208000319C528043A0319CE285C3A0319EA28C9
:10021800023A0319D428013A0319EE28073A0319B8
:10022800E528013A0319DE28023A0319E0280D3AB5
:100238000319DA28183A0319D728083A0319D128D4
:10024800043A0319C8282E172E1B080085142F15E9
:10025800B501172AFF23831690008312850185169E
:100268001D308316850005309500183096009F01D3
:1002780007308312990068308B000530831681009F
:100288003130831290008514AE01AF010323D722C9
:10029800B10143182E164310C31C532939228B175A
:1002A800172285104408AC000310AC0DB5012420BA
:1002B800AE1C6029AE10AC20AE1D6429AE11B5018C
:1002C800AE1E6829AE12F42183122F1D7029B51EA7
:1002D80085292F1185108529C318351F85292C08D4
:1002E800F73A031D7C294408AC000310AC0D8510B7
:1002F800AC03AC1B84292C1885142C188429851070
:10030800B50104303302031C5B29321C8D292E16DB
:10031800C20AB21C91292E16C2032E1E5B2917226F
:10032800C8225B290B1CBD293708B6000508B70091
:100338000B10B606361EB52934088100431CAA29BD
:100348000A3084001420340203188512B50A330FCA
:10035800B3000001051C8130051D8230B200B21FB8
:10036800B3018312B61DBD290E08A8000F08A90005
:100378002E140B1DC829431885120B11000000000C
:1003880000000000831285160C1CE9290C10C31C00
:10039800DF290130AA020030031CAB03AB022B0893
:1003A8002A04031DDF29D230AA001A30AB00C40B7F
:1003B800DF29F42243102D0FAD0083122D08083ACF
:1003C8000319AE16AF18AE11AF143E08DF003D0892
:1003D8008A003C0884003B088300DE0E5E0E09009C
:1003E80000307622831242060319FE294208BF0014
:1003F80000305A2283122F1C0D2A013076228312D4
:10040800440603190B2A4408BF0001305A228312FC
:100418002F1002307622831243060319080043087E
:10042800BF0002305A2AC21BC2010A304202031C12
:100438001F2A0930C200C208031D242A2E124310A5
:100448002E1E2F2A43182E2A43140A308400142003
:10045800B400B8222E124318322AEC224208013E78
:1004680084001420B400AD010800C41BC401093085
:100478004402031C412A0830C400431C0800C31866
:10048800502A44080319502A013076228312C400E6
:10049800C314C4080319C40AC4080319C310D2300A
:1004A800AA001A30AB002F14AD010800C000831653
:1004B8009C185B2A8312400883169B0083123F080E
:1004C80083169A003F309C0503108B1B03148B1373
:1004D8001C1555309D00AA309D009C141C11031852
:1004E8008B170800C100640083169C18772A8312B2
:1004F800410883169B003F309C051C1403101C18F0
:1005080003140030031801308312BF00C0018316A2
:100518001A080800BA00640083169C188F2A8312F0
:100528003A0883169B003F309C051C1403101C18C6
:1005380003140030031801308312B800B901831680
:100548001A0808004318C3180800C314013076229B
:100558008312C400C4080319C40AD230AA001A308E
:10056800AB002F14AD010800C830C100C42A0D30FB
:10057800C000FB30BF00BF0BBF2AC00BBF2AC42A74
:100588008312C10BBB2A0800FA30C1000330C00037
:100598009730BF00BF0BCE2AC00BCE2AD32A8312B6
:1005A800C10BCA2A0800003076228312C20001302B
:1005B80076228312C400023076228312C300080018
:1005C80064008001840A0406031900340406E52A3D
:1005D800C310013076228312C4002F14AD01080025
:1005E800C31001308E228312C4002F14AD010800FD
:1005F8008313203084003830E42283012E29B1018E
:08060800AE10AE11B0010800B4
:0840000030002E0037004200E1
:02400E00843FED
:10420000050001000100FF00FF00FF00FF00FF00AC
:00000001FF
